{
  "_format": "hh-sol-artifact-1",
  "contractName": "Lock",
  "sourceName": "contracts/Lock.sol",
  "abi": [
    {
      "inputs": [
        {
          "internalType": "uint256",
          "name": "_unlockTime",
          "type": "uint256"
        }
      ],
      "stateMutability": "payable",
      "type": "constructor"
    },
    {
      "inputs": [
        {
          "internalType": "address",
          "name": "sender",
          "type": "address"
        },
        {
          "internalType": "uint256",
          "name": "tokenId",
          "type": "uint256"
        },
        {
          "internalType": "address",
          "name": "owner",
          "type": "address"
        }
      ],
      "name": "ERC721IncorrectOwner",
      "type": "error"
    },
    {
      "inputs": [
        {
          "internalType": "address",
          "name": "operator",
          "type": "address"
        },
        {
          "internalType": "uint256",
          "name": "tokenId",
          "type": "uint256"
        }
      ],
      "name": "ERC721InsufficientApproval",
      "type": "error"
    },
    {
      "inputs": [
        {
          "internalType": "address",
          "name": "approver",
          "type": "address"
        }
      ],
      "name": "ERC721InvalidApprover",
      "type": "error"
    },
    {
      "inputs": [
        {
          "internalType": "address",
          "name": "operator",
          "type": "address"
        }
      ],
      "name": "ERC721InvalidOperator",
      "type": "error"
    },
    {
      "inputs": [
        {
          "internalType": "address",
          "name": "owner",
          "type": "address"
        }
      ],
      "name": "ERC721InvalidOwner",
      "type": "error"
    },
    {
      "inputs": [
        {
          "internalType": "address",
          "name": "receiver",
          "type": "address"
        }
      ],
      "name": "ERC721InvalidReceiver",
      "type": "error"
    },
    {
      "inputs": [
        {
          "internalType": "address",
          "name": "sender",
          "type": "address"
        }
      ],
      "name": "ERC721InvalidSender",
      "type": "error"
    },
    {
      "inputs": [
        {
          "internalType": "uint256",
          "name": "tokenId",
          "type": "uint256"
        }
      ],
      "name": "ERC721NonexistentToken",
      "type": "error"
    },
    {
      "anonymous": false,
      "inputs": [
        {
          "indexed": true,
          "internalType": "address",
          "name": "owner",
          "type": "address"
        },
        {
          "indexed": true,
          "internalType": "address",
          "name": "approved",
          "type": "address"
        },
        {
          "indexed": true,
          "internalType": "uint256",
          "name": "tokenId",
          "type": "uint256"
        }
      ],
      "name": "Approval",
      "type": "event"
    },
    {
      "anonymous": false,
      "inputs": [
        {
          "indexed": true,
          "internalType": "address",
          "name": "owner",
          "type": "address"
        },
        {
          "indexed": true,
          "internalType": "address",
          "name": "operator",
          "type": "address"
        },
        {
          "indexed": false,
          "internalType": "bool",
          "name": "approved",
          "type": "bool"
        }
      ],
      "name": "ApprovalForAll",
      "type": "event"
    },
    {
      "anonymous": false,
      "inputs": [
        {
          "indexed": true,
          "internalType": "address",
          "name": "from",
          "type": "address"
        },
        {
          "indexed": true,
          "internalType": "address",
          "name": "to",
          "type": "address"
        },
        {
          "indexed": true,
          "internalType": "uint256",
          "name": "tokenId",
          "type": "uint256"
        }
      ],
      "name": "Transfer",
      "type": "event"
    },
    {
      "anonymous": false,
      "inputs": [
        {
          "indexed": false,
          "internalType": "uint256",
          "name": "amount",
          "type": "uint256"
        },
        {
          "indexed": false,
          "internalType": "uint256",
          "name": "when",
          "type": "uint256"
        }
      ],
      "name": "Withdrawal",
      "type": "event"
    },
    {
      "inputs": [
        {
          "internalType": "address",
          "name": "to",
          "type": "address"
        },
        {
          "internalType": "uint256",
          "name": "tokenId",
          "type": "uint256"
        }
      ],
      "name": "approve",
      "outputs": [],
      "stateMutability": "nonpayable",
      "type": "function"
    },
    {
      "inputs": [
        {
          "internalType": "address",
          "name": "owner",
          "type": "address"
        }
      ],
      "name": "balanceOf",
      "outputs": [
        {
          "internalType": "uint256",
          "name": "",
          "type": "uint256"
        }
      ],
      "stateMutability": "view",
      "type": "function"
    },
    {
      "inputs": [
        {
          "internalType": "uint256",
          "name": "tokenId",
          "type": "uint256"
        }
      ],
      "name": "getApproved",
      "outputs": [
        {
          "internalType": "address",
          "name": "",
          "type": "address"
        }
      ],
      "stateMutability": "view",
      "type": "function"
    },
    {
      "inputs": [
        {
          "internalType": "address",
          "name": "owner",
          "type": "address"
        },
        {
          "internalType": "address",
          "name": "operator",
          "type": "address"
        }
      ],
      "name": "isApprovedForAll",
      "outputs": [
        {
          "internalType": "bool",
          "name": "",
          "type": "bool"
        }
      ],
      "stateMutability": "view",
      "type": "function"
    },
    {
      "inputs": [],
      "name": "name",
      "outputs": [
        {
          "internalType": "string",
          "name": "",
          "type": "string"
        }
      ],
      "stateMutability": "view",
      "type": "function"
    },
    {
      "inputs": [],
      "name": "owner",
      "outputs": [
        {
          "internalType": "address payable",
          "name": "",
          "type": "address"
        }
      ],
      "stateMutability": "view",
      "type": "function"
    },
    {
      "inputs": [
        {
          "internalType": "uint256",
          "name": "tokenId",
          "type": "uint256"
        }
      ],
      "name": "ownerOf",
      "outputs": [
        {
          "internalType": "address",
          "name": "",
          "type": "address"
        }
      ],
      "stateMutability": "view",
      "type": "function"
    },
    {
      "inputs": [
        {
          "internalType": "address",
          "name": "from",
          "type": "address"
        },
        {
          "internalType": "address",
          "name": "to",
          "type": "address"
        },
        {
          "internalType": "uint256",
          "name": "tokenId",
          "type": "uint256"
        }
      ],
      "name": "safeTransferFrom",
      "outputs": [],
      "stateMutability": "nonpayable",
      "type": "function"
    },
    {
      "inputs": [
        {
          "internalType": "address",
          "name": "from",
          "type": "address"
        },
        {
          "internalType": "address",
          "name": "to",
          "type": "address"
        },
        {
          "internalType": "uint256",
          "name": "tokenId",
          "type": "uint256"
        },
        {
          "internalType": "bytes",
          "name": "data",
          "type": "bytes"
        }
      ],
      "name": "safeTransferFrom",
      "outputs": [],
      "stateMutability": "nonpayable",
      "type": "function"
    },
    {
      "inputs": [
        {
          "internalType": "address",
          "name": "operator",
          "type": "address"
        },
        {
          "internalType": "bool",
          "name": "approved",
          "type": "bool"
        }
      ],
      "name": "setApprovalForAll",
      "outputs": [],
      "stateMutability": "nonpayable",
      "type": "function"
    },
    {
      "inputs": [
        {
          "internalType": "bytes4",
          "name": "interfaceId",
          "type": "bytes4"
        }
      ],
      "name": "supportsInterface",
      "outputs": [
        {
          "internalType": "bool",
          "name": "",
          "type": "bool"
        }
      ],
      "stateMutability": "view",
      "type": "function"
    },
    {
      "inputs": [],
      "name": "symbol",
      "outputs": [
        {
          "internalType": "string",
          "name": "",
          "type": "string"
        }
      ],
      "stateMutability": "view",
      "type": "function"
    },
    {
      "inputs": [
        {
          "internalType": "uint256",
          "name": "tokenId",
          "type": "uint256"
        }
      ],
      "name": "tokenURI",
      "outputs": [
        {
          "internalType": "string",
          "name": "",
          "type": "string"
        }
      ],
      "stateMutability": "view",
      "type": "function"
    },
    {
      "inputs": [
        {
          "internalType": "address",
          "name": "from",
          "type": "address"
        },
        {
          "internalType": "address",
          "name": "to",
          "type": "address"
        },
        {
          "internalType": "uint256",
          "name": "tokenId",
          "type": "uint256"
        }
      ],
      "name": "transferFrom",
      "outputs": [],
      "stateMutability": "nonpayable",
      "type": "function"
    },
    {
      "inputs": [],
      "name": "unlockTime",
      "outputs": [
        {
          "internalType": "uint256",
          "name": "",
          "type": "uint256"
        }
      ],
      "stateMutability": "view",
      "type": "function"
    },
    {
      "inputs": [
        {
          "internalType": "string",
          "name": "docHash",
          "type": "string"
        }
      ],
      "name": "uploadDocument",
      "outputs": [],
      "stateMutability": "nonpayable",
      "type": "function"
    },
    {
      "inputs": [],
      "name": "withdraw",
      "outputs": [],
      "stateMutability": "nonpayable",
      "type": "function"
    }
  ],
  "bytecode": "0x608060405260405162002ce338038062002ce383398181016040528101906200002991906200018f565b6040518060400160405280600d81526020017f446f63756d656e74546f6b656e000000000000000000000000000000000000008152506040518060400160405280600381526020017f444f4300000000000000000000000000000000000000000000000000000000008152508160009081620000a6919062000431565b508060019081620000b8919062000431565b50505080421062000100576040517f08c379a0000000000000000000000000000000000000000000000000000000008152600401620000f7906200059f565b60405180910390fd5b8060068190555033600760006101000a81548173ffffffffffffffffffffffffffffffffffffffff021916908373ffffffffffffffffffffffffffffffffffffffff16021790555050620005c1565b600080fd5b6000819050919050565b620001698162000154565b81146200017557600080fd5b50565b60008151905062000189816200015e565b92915050565b600060208284031215620001a857620001a76200014f565b5b6000620001b88482850162000178565b91505092915050565b600081519050919050565b7f4e487b7100000000000000000000000000000000000000000000000000000000600052604160045260246000fd5b7f4e487b7100000000000000000000000000000000000000000000000000000000600052602260045260246000fd5b600060028204905060018216806200024357607f821691505b602082108103620002595762000258620001fb565b5b50919050565b60008190508160005260206000209050919050565b60006020601f8301049050919050565b600082821b905092915050565b600060088302620002c37fffffffffffffffffffffffffffffffffffffffffffffffffffffffffffffffff8262000284565b620002cf868362000284565b95508019841693508086168417925050509392505050565b6000819050919050565b6000620003126200030c620003068462000154565b620002e7565b62000154565b9050919050565b6000819050919050565b6200032e83620002f1565b620003466200033d8262000319565b84845462000291565b825550505050565b600090565b6200035d6200034e565b6200036a81848462000323565b505050565b5b8181101562000392576200038660008262000353565b60018101905062000370565b5050565b601f821115620003e157620003ab816200025f565b620003b68462000274565b81016020851015620003c6578190505b620003de620003d58562000274565b8301826200036f565b50505b505050565b600082821c905092915050565b60006200040660001984600802620003e6565b1980831691505092915050565b6000620004218383620003f3565b9150826002028217905092915050565b6200043c82620001c1565b67ffffffffffffffff811115620004585762000457620001cc565b5b6200046482546200022a565b6200047182828562000396565b600060209050601f831160018114620004a9576000841562000494578287015190505b620004a0858262000413565b86555062000510565b601f198416620004b9866200025f565b60005b82811015620004e357848901518255600182019150602085019450602081019050620004bc565b86831015620005035784890151620004ff601f891682620003f3565b8355505b6001600288020188555050505b505050505050565b600082825260208201905092915050565b7f556e6c6f636b2074696d652073686f756c6420626520696e207468652066757460008201527f7572650000000000000000000000000000000000000000000000000000000000602082015250565b60006200058760238362000518565b9150620005948262000529565b604082019050919050565b60006020820190508181036000830152620005ba8162000578565b9050919050565b61271280620005d16000396000f3fe608060405234801561001057600080fd5b506004361061010b5760003560e01c80636352211e116100a2578063a22cb46511610071578063a22cb465146102a6578063b7f5576d146102c2578063b88d4fde146102de578063c87b56dd146102fa578063e985e9c51461032a5761010b565b80636352211e1461020a57806370a082311461023a5780638da5cb5b1461026a57806395d89b41146102885761010b565b806323b872dd116100de57806323b872dd146101aa578063251c1aa3146101c65780633ccfd60b146101e457806342842e0e146101ee5761010b565b806301ffc9a71461011057806306fdde0314610140578063081812fc1461015e578063095ea7b31461018e575b600080fd5b61012a600480360381019061012591906119a8565b61035a565b60405161013791906119f0565b60405180910390f35b61014861043c565b6040516101559190611a9b565b60405180910390f35b61017860048036038101906101739190611af3565b6104ce565b6040516101859190611b61565b60405180910390f35b6101a860048036038101906101a39190611ba8565b6104ea565b005b6101c460048036038101906101bf9190611be8565b610500565b005b6101ce610602565b6040516101db9190611c4a565b60405180910390f35b6101ec610608565b005b61020860048036038101906102039190611be8565b6107a6565b005b610224600480360381019061021f9190611af3565b6107c6565b6040516102319190611b61565b60405180910390f35b610254600480360381019061024f9190611c65565b6107d8565b6040516102619190611c4a565b60405180910390f35b610272610892565b60405161027f9190611cb3565b60405180910390f35b6102906108b8565b60405161029d9190611a9b565b60405180910390f35b6102c060048036038101906102bb9190611cfa565b61094a565b005b6102dc60048036038101906102d79190611e6f565b610960565b005b6102f860048036038101906102f39190611f59565b6109ae565b005b610314600480360381019061030f9190611af3565b6109d3565b6040516103219190611a9b565b60405180910390f35b610344600480360381019061033f9190611fdc565b610a3c565b60405161035191906119f0565b60405180910390f35b60007f80ac58cd000000000000000000000000000000000000000000000000000000007bffffffffffffffffffffffffffffffffffffffffffffffffffffffff1916827bffffffffffffffffffffffffffffffffffffffffffffffffffffffff1916148061042557507f5b5e139f000000000000000000000000000000000000000000000000000000007bffffffffffffffffffffffffffffffffffffffffffffffffffffffff1916827bffffffffffffffffffffffffffffffffffffffffffffffffffffffff1916145b80610435575061043482610ad0565b5b9050919050565b60606000805461044b9061204b565b80601f01602080910402602001604051908101604052809291908181526020018280546104779061204b565b80156104c45780601f10610499576101008083540402835291602001916104c4565b820191906000526020600020905b8154815290600101906020018083116104a757829003601f168201915b5050505050905090565b60006104d982610b3a565b506104e382610bc2565b9050919050565b6104fc82826104f7610bff565b610c07565b5050565b600073ffffffffffffffffffffffffffffffffffffffff168273ffffffffffffffffffffffffffffffffffffffff16036105725760006040517f64a0ae920000000000000000000000000000000000000000000000000000000081526004016105699190611b61565b60405180910390fd5b60006105868383610581610bff565b610c19565b90508373ffffffffffffffffffffffffffffffffffffffff168173ffffffffffffffffffffffffffffffffffffffff16146105fc578382826040517f64283d7b0000000000000000000000000000000000000000000000000000000081526004016105f39392919061207c565b60405180910390fd5b50505050565b60065481565b61062d6040518060600160405280602b81526020016126b2602b913960065442610e33565b600654421015610672576040517f08c379a0000000000000000000000000000000000000000000000000000000008152600401610669906120ff565b60405180910390fd5b600760009054906101000a900473ffffffffffffffffffffffffffffffffffffffff1673ffffffffffffffffffffffffffffffffffffffff163373ffffffffffffffffffffffffffffffffffffffff1614610702576040517f08c379a00000000000000000000000000000000000000000000000000000000081526004016106f99061216b565b60405180910390fd5b7fbf2ed60bd5b5965d685680c01195c9514e4382e28e3a5a2d2d5244bf59411b93474260405161073392919061218b565b60405180910390a1600760009054906101000a900473ffffffffffffffffffffffffffffffffffffffff1673ffffffffffffffffffffffffffffffffffffffff166108fc479081150290604051600060405180830381858888f193505050501580156107a3573d6000803e3d6000fd5b50565b6107c1838383604051806020016040528060008152506109ae565b505050565b60006107d182610b3a565b9050919050565b60008073ffffffffffffffffffffffffffffffffffffffff168273ffffffffffffffffffffffffffffffffffffffff160361084b5760006040517f89c62b640000000000000000000000000000000000000000000000000000000081526004016108429190611b61565b60405180910390fd5b600360008373ffffffffffffffffffffffffffffffffffffffff1673ffffffffffffffffffffffffffffffffffffffff168152602001908152602001600020549050919050565b600760009054906101000a900473ffffffffffffffffffffffffffffffffffffffff1681565b6060600180546108c79061204b565b80601f01602080910402602001604051908101604052809291908181526020018280546108f39061204b565b80156109405780601f1061091557610100808354040283529160200191610940565b820191906000526020600020905b81548152906001019060200180831161092357829003601f168201915b5050505050905090565b61095c610955610bff565b8383610ed2565b5050565b60086000815480929190610973906121e3565b9190505550600060085490508160096000838152602001908152602001600020908161099f91906123d7565b506109aa3382611041565b5050565b6109b9848484610500565b6109cd6109c4610bff565b8585858561105f565b50505050565b60606109de82610b3a565b5060006109e9611210565b90506000815111610a095760405180602001604052806000815250610a34565b80610a1384611227565b604051602001610a249291906124e5565b6040516020818303038152906040525b915050919050565b6000600560008473ffffffffffffffffffffffffffffffffffffffff1673ffffffffffffffffffffffffffffffffffffffff16815260200190815260200160002060008373ffffffffffffffffffffffffffffffffffffffff1673ffffffffffffffffffffffffffffffffffffffff16815260200190815260200160002060009054906101000a900460ff16905092915050565b60007f01ffc9a7000000000000000000000000000000000000000000000000000000007bffffffffffffffffffffffffffffffffffffffffffffffffffffffff1916827bffffffffffffffffffffffffffffffffffffffffffffffffffffffff1916149050919050565b600080610b46836112f5565b9050600073ffffffffffffffffffffffffffffffffffffffff168173ffffffffffffffffffffffffffffffffffffffff1603610bb957826040517f7e273289000000000000000000000000000000000000000000000000000000008152600401610bb09190611c4a565b60405180910390fd5b80915050919050565b60006004600083815260200190815260200160002060009054906101000a900473ffffffffffffffffffffffffffffffffffffffff169050919050565b600033905090565b610c148383836001611332565b505050565b600080610c25846112f5565b9050600073ffffffffffffffffffffffffffffffffffffffff168373ffffffffffffffffffffffffffffffffffffffff1614610c6757610c668184866114f7565b5b600073ffffffffffffffffffffffffffffffffffffffff168173ffffffffffffffffffffffffffffffffffffffff1614610cf857610ca9600085600080611332565b6001600360008373ffffffffffffffffffffffffffffffffffffffff1673ffffffffffffffffffffffffffffffffffffffff168152602001908152602001600020600082825403925050819055505b600073ffffffffffffffffffffffffffffffffffffffff168573ffffffffffffffffffffffffffffffffffffffff1614610d7b576001600360008773ffffffffffffffffffffffffffffffffffffffff1673ffffffffffffffffffffffffffffffffffffffff168152602001908152602001600020600082825401925050819055505b846002600086815260200190815260200160002060006101000a81548173ffffffffffffffffffffffffffffffffffffffff021916908373ffffffffffffffffffffffffffffffffffffffff160217905550838573ffffffffffffffffffffffffffffffffffffffff168273ffffffffffffffffffffffffffffffffffffffff167fddf252ad1be2c89b69c2b068fc378daa952ba7f163c4a11628f55a4df523b3ef60405160405180910390a4809150509392505050565b610ecd838383604051602401610e4b93929190612509565b6040516020818303038152906040527fca47c4eb000000000000000000000000000000000000000000000000000000007bffffffffffffffffffffffffffffffffffffffffffffffffffffffff19166020820180517bffffffffffffffffffffffffffffffffffffffffffffffffffffffff83818316178352505050506115bb565b505050565b600073ffffffffffffffffffffffffffffffffffffffff168273ffffffffffffffffffffffffffffffffffffffff1603610f4357816040517f5b08ba18000000000000000000000000000000000000000000000000000000008152600401610f3a9190611b61565b60405180910390fd5b80600560008573ffffffffffffffffffffffffffffffffffffffff1673ffffffffffffffffffffffffffffffffffffffff16815260200190815260200160002060008473ffffffffffffffffffffffffffffffffffffffff1673ffffffffffffffffffffffffffffffffffffffff16815260200190815260200160002060006101000a81548160ff0219169083151502179055508173ffffffffffffffffffffffffffffffffffffffff168373ffffffffffffffffffffffffffffffffffffffff167f17307eab39ab6107e8899845ad3d59bd9653f200f220920489ca2b5937696c318360405161103491906119f0565b60405180910390a3505050565b61105b8282604051806020016040528060008152506115d5565b5050565b60008373ffffffffffffffffffffffffffffffffffffffff163b1115611209578273ffffffffffffffffffffffffffffffffffffffff1663150b7a02868685856040518563ffffffff1660e01b81526004016110be949392919061259c565b6020604051808303816000875af19250505080156110fa57506040513d601f19601f820116820180604052508101906110f791906125fd565b60015b61117e573d806000811461112a576040519150601f19603f3d011682016040523d82523d6000602084013e61112f565b606091505b50600081510361117657836040517f64a0ae9200000000000000000000000000000000000000000000000000000000815260040161116d9190611b61565b60405180910390fd5b805181602001fd5b63150b7a0260e01b7bffffffffffffffffffffffffffffffffffffffffffffffffffffffff1916817bffffffffffffffffffffffffffffffffffffffffffffffffffffffff19161461120757836040517f64a0ae920000000000000000000000000000000000000000000000000000000081526004016111fe9190611b61565b60405180910390fd5b505b5050505050565b606060405180602001604052806000815250905090565b606060006001611236846115f9565b01905060008167ffffffffffffffff81111561125557611254611d44565b5b6040519080825280601f01601f1916602001820160405280156112875781602001600182028036833780820191505090505b509050600082602001820190505b6001156112ea578080600190039150507f3031323334353637383961626364656600000000000000000000000000000000600a86061a8153600a85816112de576112dd61262a565b5b04945060008503611295575b819350505050919050565b60006002600083815260200190815260200160002060009054906101000a900473ffffffffffffffffffffffffffffffffffffffff169050919050565b808061136b5750600073ffffffffffffffffffffffffffffffffffffffff168273ffffffffffffffffffffffffffffffffffffffff1614155b1561149f57600061137b84610b3a565b9050600073ffffffffffffffffffffffffffffffffffffffff168373ffffffffffffffffffffffffffffffffffffffff16141580156113e657508273ffffffffffffffffffffffffffffffffffffffff168173ffffffffffffffffffffffffffffffffffffffff1614155b80156113f957506113f78184610a3c565b155b1561143b57826040517fa9fbf51f0000000000000000000000000000000000000000000000000000000081526004016114329190611b61565b60405180910390fd5b811561149d57838573ffffffffffffffffffffffffffffffffffffffff168273ffffffffffffffffffffffffffffffffffffffff167f8c5be1e5ebec7d5bd14f71427d1e84f3dd0314c0f7b2291e5b200ac8c7c3b92560405160405180910390a45b505b836004600085815260200190815260200160002060006101000a81548173ffffffffffffffffffffffffffffffffffffffff021916908373ffffffffffffffffffffffffffffffffffffffff16021790555050505050565b61150283838361174c565b6115b657600073ffffffffffffffffffffffffffffffffffffffff168373ffffffffffffffffffffffffffffffffffffffff160361157757806040517f7e27328900000000000000000000000000000000000000000000000000000000815260040161156e9190611c4a565b60405180910390fd5b81816040517f177e802f0000000000000000000000000000000000000000000000000000000081526004016115ad929190612659565b60405180910390fd5b505050565b6115d2816115ca61180d61182e565b63ffffffff16565b50565b6115df8383611839565b6115f46115ea610bff565b600085858561105f565b505050565b600080600090507a184f03e93ff9f4daa797ed6e38ed64bf6a1f0100000000000000008310611657577a184f03e93ff9f4daa797ed6e38ed64bf6a1f010000000000000000838161164d5761164c61262a565b5b0492506040810190505b6d04ee2d6d415b85acef81000000008310611694576d04ee2d6d415b85acef8100000000838161168a5761168961262a565b5b0492506020810190505b662386f26fc1000083106116c357662386f26fc1000083816116b9576116b861262a565b5b0492506010810190505b6305f5e10083106116ec576305f5e10083816116e2576116e161262a565b5b0492506008810190505b61271083106117115761271083816117075761170661262a565b5b0492506004810190505b60648310611734576064838161172a5761172961262a565b5b0492506002810190505b600a8310611743576001810190505b80915050919050565b60008073ffffffffffffffffffffffffffffffffffffffff168373ffffffffffffffffffffffffffffffffffffffff161415801561180457508273ffffffffffffffffffffffffffffffffffffffff168473ffffffffffffffffffffffffffffffffffffffff1614806117c557506117c48484610a3c565b5b8061180357508273ffffffffffffffffffffffffffffffffffffffff166117eb83610bc2565b73ffffffffffffffffffffffffffffffffffffffff16145b5b90509392505050565b60006a636f6e736f6c652e6c6f679050600080835160208501845afa505050565b611932819050919050565b600073ffffffffffffffffffffffffffffffffffffffff168273ffffffffffffffffffffffffffffffffffffffff16036118ab5760006040517f64a0ae920000000000000000000000000000000000000000000000000000000081526004016118a29190611b61565b60405180910390fd5b60006118b983836000610c19565b9050600073ffffffffffffffffffffffffffffffffffffffff168173ffffffffffffffffffffffffffffffffffffffff161461192d5760006040517f73c6ac6e0000000000000000000000000000000000000000000000000000000081526004016119249190611b61565b60405180910390fd5b505050565b61193a612682565b565b6000604051905090565b600080fd5b600080fd5b60007fffffffff0000000000000000000000000000000000000000000000000000000082169050919050565b61198581611950565b811461199057600080fd5b50565b6000813590506119a28161197c565b92915050565b6000602082840312156119be576119bd611946565b5b60006119cc84828501611993565b91505092915050565b60008115159050919050565b6119ea816119d5565b82525050565b6000602082019050611a0560008301846119e1565b92915050565b600081519050919050565b600082825260208201905092915050565b60005b83811015611a45578082015181840152602081019050611a2a565b60008484015250505050565b6000601f19601f8301169050919050565b6000611a6d82611a0b565b611a778185611a16565b9350611a87818560208601611a27565b611a9081611a51565b840191505092915050565b60006020820190508181036000830152611ab58184611a62565b905092915050565b6000819050919050565b611ad081611abd565b8114611adb57600080fd5b50565b600081359050611aed81611ac7565b92915050565b600060208284031215611b0957611b08611946565b5b6000611b1784828501611ade565b91505092915050565b600073ffffffffffffffffffffffffffffffffffffffff82169050919050565b6000611b4b82611b20565b9050919050565b611b5b81611b40565b82525050565b6000602082019050611b766000830184611b52565b92915050565b611b8581611b40565b8114611b9057600080fd5b50565b600081359050611ba281611b7c565b92915050565b60008060408385031215611bbf57611bbe611946565b5b6000611bcd85828601611b93565b9250506020611bde85828601611ade565b9150509250929050565b600080600060608486031215611c0157611c00611946565b5b6000611c0f86828701611b93565b9350506020611c2086828701611b93565b9250506040611c3186828701611ade565b9150509250925092565b611c4481611abd565b82525050565b6000602082019050611c5f6000830184611c3b565b92915050565b600060208284031215611c7b57611c7a611946565b5b6000611c8984828501611b93565b91505092915050565b6000611c9d82611b20565b9050919050565b611cad81611c92565b82525050565b6000602082019050611cc86000830184611ca4565b92915050565b611cd7816119d5565b8114611ce257600080fd5b50565b600081359050611cf481611cce565b92915050565b60008060408385031215611d1157611d10611946565b5b6000611d1f85828601611b93565b9250506020611d3085828601611ce5565b9150509250929050565b600080fd5b600080fd5b7f4e487b7100000000000000000000000000000000000000000000000000000000600052604160045260246000fd5b611d7c82611a51565b810181811067ffffffffffffffff82111715611d9b57611d9a611d44565b5b80604052505050565b6000611dae61193c565b9050611dba8282611d73565b919050565b600067ffffffffffffffff821115611dda57611dd9611d44565b5b611de382611a51565b9050602081019050919050565b82818337600083830152505050565b6000611e12611e0d84611dbf565b611da4565b905082815260208101848484011115611e2e57611e2d611d3f565b5b611e39848285611df0565b509392505050565b600082601f830112611e5657611e55611d3a565b5b8135611e66848260208601611dff565b91505092915050565b600060208284031215611e8557611e84611946565b5b600082013567ffffffffffffffff811115611ea357611ea261194b565b5b611eaf84828501611e41565b91505092915050565b600067ffffffffffffffff821115611ed357611ed2611d44565b5b611edc82611a51565b9050602081019050919050565b6000611efc611ef784611eb8565b611da4565b905082815260208101848484011115611f1857611f17611d3f565b5b611f23848285611df0565b509392505050565b600082601f830112611f4057611f3f611d3a565b5b8135611f50848260208601611ee9565b91505092915050565b60008060008060808587031215611f7357611f72611946565b5b6000611f8187828801611b93565b9450506020611f9287828801611b93565b9350506040611fa387828801611ade565b925050606085013567ffffffffffffffff811115611fc457611fc361194b565b5b611fd087828801611f2b565b91505092959194509250565b60008060408385031215611ff357611ff2611946565b5b600061200185828601611b93565b925050602061201285828601611b93565b9150509250929050565b7f4e487b7100000000000000000000000000000000000000000000000000000000600052602260045260246000fd5b6000600282049050600182168061206357607f821691505b6020821081036120765761207561201c565b5b50919050565b60006060820190506120916000830186611b52565b61209e6020830185611c3b565b6120ab6040830184611b52565b949350505050565b7f596f752063616e27742077697468647261772079657400000000000000000000600082015250565b60006120e9601683611a16565b91506120f4826120b3565b602082019050919050565b60006020820190508181036000830152612118816120dc565b9050919050565b7f596f75206172656e277420746865206f776e6572000000000000000000000000600082015250565b6000612155601483611a16565b91506121608261211f565b602082019050919050565b6000602082019050818103600083015261218481612148565b9050919050565b60006040820190506121a06000830185611c3b565b6121ad6020830184611c3b565b9392505050565b7f4e487b7100000000000000000000000000000000000000000000000000000000600052601160045260246000fd5b60006121ee82611abd565b91507fffffffffffffffffffffffffffffffffffffffffffffffffffffffffffffffff82036122205761221f6121b4565b5b600182019050919050565b60008190508160005260206000209050919050565b60006020601f8301049050919050565b600082821b905092915050565b60006008830261228d7fffffffffffffffffffffffffffffffffffffffffffffffffffffffffffffffff82612250565b6122978683612250565b95508019841693508086168417925050509392505050565b6000819050919050565b60006122d46122cf6122ca84611abd565b6122af565b611abd565b9050919050565b6000819050919050565b6122ee836122b9565b6123026122fa826122db565b84845461225d565b825550505050565b600090565b61231761230a565b6123228184846122e5565b505050565b5b818110156123465761233b60008261230f565b600181019050612328565b5050565b601f82111561238b5761235c8161222b565b61236584612240565b81016020851015612374578190505b61238861238085612240565b830182612327565b50505b505050565b600082821c905092915050565b60006123ae60001984600802612390565b1980831691505092915050565b60006123c7838361239d565b9150826002028217905092915050565b6123e082611a0b565b67ffffffffffffffff8111156123f9576123f8611d44565b5b612403825461204b565b61240e82828561234a565b600060209050601f831160018114612441576000841561242f578287015190505b61243985826123bb565b8655506124a1565b601f19841661244f8661222b565b60005b8281101561247757848901518255600182019150602085019450602081019050612452565b868310156124945784890151612490601f89168261239d565b8355505b6001600288020188555050505b505050505050565b600081905092915050565b60006124bf82611a0b565b6124c981856124a9565b93506124d9818560208601611a27565b80840191505092915050565b60006124f182856124b4565b91506124fd82846124b4565b91508190509392505050565b600060608201905081810360008301526125238186611a62565b90506125326020830185611c3b565b61253f6040830184611c3b565b949350505050565b600081519050919050565b600082825260208201905092915050565b600061256e82612547565b6125788185612552565b9350612588818560208601611a27565b61259181611a51565b840191505092915050565b60006080820190506125b16000830187611b52565b6125be6020830186611b52565b6125cb6040830185611c3b565b81810360608301526125dd8184612563565b905095945050505050565b6000815190506125f78161197c565b92915050565b60006020828403121561261357612612611946565b5b6000612621848285016125e8565b91505092915050565b7f4e487b7100000000000000000000000000000000000000000000000000000000600052601260045260246000fd5b600060408201905061266e6000830185611b52565b61267b6020830184611c3b565b9392505050565b7f4e487b7100000000000000000000000000000000000000000000000000000000600052605160045260246000fdfe556e6c6f636b2074696d6520697320256f20616e6420626c6f636b2074696d657374616d7020697320256fa264697066735822122017f8848d3dab1078fc44ee5dd8456f19cc0993547a119c20978d14a9f81b098d64736f6c63430008140033",
  "linkReferences": {},
  "deployedLinkReferences": {}
}